{
  "contractName": "SimpleStore",
  "abi": [
    {
      "constant": true,
      "inputs": [
        {
          "name": "",
          "type": "uint256"
        }
      ],
      "name": "items",
      "outputs": [
        {
          "name": "price",
          "type": "uint256"
        },
        {
          "name": "units",
          "type": "uint256"
        }
      ],
      "payable": false,
      "stateMutability": "view",
      "type": "function"
    },
    {
      "constant": false,
      "inputs": [
        {
          "name": "_price",
          "type": "uint256"
        },
        {
          "name": "_units",
          "type": "uint256"
        }
      ],
      "name": "newItem",
      "outputs": [],
      "payable": false,
      "stateMutability": "nonpayable",
      "type": "function"
    },
    {
      "constant": true,
      "inputs": [
        {
          "name": "_itemIdx",
          "type": "uint256"
        }
      ],
      "name": "getUsingStorage",
      "outputs": [
        {
          "name": "",
          "type": "uint256"
        }
      ],
      "payable": false,
      "stateMutability": "view",
      "type": "function"
    },
    {
      "constant": true,
      "inputs": [
        {
          "name": "_itemIdx",
          "type": "uint256"
        }
      ],
      "name": "getUsingMemory",
      "outputs": [
        {
          "name": "",
          "type": "uint256"
        }
      ],
      "payable": false,
      "stateMutability": "view",
      "type": "function"
    },
    {
      "constant": false,
      "inputs": [
        {
          "name": "_itemIdx",
          "type": "uint256"
        },
        {
          "name": "_units",
          "type": "uint256"
        }
      ],
      "name": "addItemUsingStorage",
      "outputs": [],
      "payable": false,
      "stateMutability": "nonpayable",
      "type": "function"
    },
    {
      "constant": true,
      "inputs": [
        {
          "name": "_itemIdx",
          "type": "uint256"
        },
        {
          "name": "_units",
          "type": "uint256"
        }
      ],
      "name": "addItemUsingMemory",
      "outputs": [],
      "payable": false,
      "stateMutability": "view",
      "type": "function"
    }
  ],
  "bytecode": "0x608060405234801561001057600080fd5b506103e4806100206000396000f300608060405260043610610078576000357c0100000000000000000000000000000000000000000000000000000000900463ffffffff1680631b03f43c1461007d578063210f8979146100be578063288469dd146100f557806329b856881461012c578063bfb231d214610163578063c3a9a866146101ab575b600080fd5b34801561008957600080fd5b506100a8600480360381019080803590602001909291905050506101ec565b6040518082815260200191505060405180910390f35b3480156100ca57600080fd5b506100f3600480360381019080803590602001909291908035906020019092919050505061021b565b005b34801561010157600080fd5b5061012a6004803603810190808035906020019092919080359060200190929190505050610252565b005b34801561013857600080fd5b5061016160048036038101908080359060200190929190803590602001909291905050506102ad565b005b34801561016f57600080fd5b5061018e60048036038101908080359060200190929190505050610316565b604051808381526020018281526020019250505060405180910390f35b3480156101b757600080fd5b506101d660048036038101908080359060200190929190505050610349565b6040518082815260200191505060405180910390f35b6000806000838154811015156101fe57fe5b906000526020600020906002020190508060010154915050919050565b6000808381548110151561022b57fe5b90600052602060002090600202019050818160010160008282540192505081905550505050565b61025a61039e565b60008381548110151561026957fe5b906000526020600020906002020160408051908101604052908160008201548152602001600182015481525050905081816020018181510191508181525050505050565b6102b561039e565b6040805190810160405280848152602001838152509050600081908060018154018082558091505090600182039060005260206000209060020201600090919290919091506000820151816000015560208201518160010155505050505050565b60008181548110151561032557fe5b90600052602060002090600202016000915090508060000154908060010154905082565b600061035361039e565b60008381548110151561036257fe5b90600052602060002090600202016040805190810160405290816000820154815260200160018201548152505090508060200151915050919050565b6040805190810160405280600081526020016000815250905600a165627a7a72305820c93d655a6251ae9305bcd183746aed7475ca3ebe2e06e646ca06eb676ee287570029",
  "source": "pragma solidity ^0.4.22;\n\ncontract SimpleStore {\n    struct Item {\n        uint price;\n        uint units; \n    }\n  \n    Item[] public items;\n\n    function newItem(uint _price, uint _units) public\n    {\n        Item memory item = Item(_price, _units);\n        items.push(item);\n    }\n\n    function getUsingStorage(uint _itemIdx) public view\n    // set to non-view to estimate gas\n    // view\n    returns (uint)\n    {\n        Item storage item = items[_itemIdx];\n        return item.units;\n    }\n\n    function getUsingMemory(uint _itemIdx) public view\n    // set to non-view to estimate gas\n    // view\n    returns (uint)\n    {\n        Item memory item = items[_itemIdx];\n        return item.units;\n    }\n\n    function addItemUsingStorage(uint _itemIdx, uint _units) public\n    {\n        Item storage item = items[_itemIdx];\n        item.units += _units;\n    }\n\n    function addItemUsingMemory(uint _itemIdx, uint _units) public view\n      // set to non-view to estimate gas\n      // view\n      {\n        Item memory item = items[_itemIdx];\n        item.units += _units;\n    }\n\n}",
  "sourcePath": "/home/dev-d/Desktop/BlockChain/Examples/contracts/SimpleStore.sol",
  "compiler": {
    "name": "solc",
    "version": "0.4.24+commit.e67f0147.Emscripten.clang"
  },
  "schemaVersion": "2.0.1",
  "updatedAt": "2018-10-06T06:54:45.022Z"
}