{
  "contractName": "SigData",
  "abi": [
    {
      "constant": true,
      "inputs": [],
      "name": "owneraddress",
      "outputs": [
        {
          "name": "",
          "type": "address"
        }
      ],
      "payable": false,
      "stateMutability": "view",
      "type": "function"
    },
    {
      "inputs": [],
      "payable": false,
      "stateMutability": "nonpayable",
      "type": "constructor"
    },
    {
      "anonymous": false,
      "inputs": [
        {
          "indexed": true,
          "name": "sender",
          "type": "address"
        },
        {
          "indexed": false,
          "name": "value",
          "type": "uint256"
        }
      ],
      "name": "ValueSetted",
      "type": "event"
    },
    {
      "constant": false,
      "inputs": [
        {
          "name": "_id",
          "type": "string"
        },
        {
          "name": "_balance",
          "type": "uint256"
        },
        {
          "name": "_balance_proof",
          "type": "bytes"
        }
      ],
      "name": "setData",
      "outputs": [],
      "payable": false,
      "stateMutability": "nonpayable",
      "type": "function"
    },
    {
      "constant": true,
      "inputs": [],
      "name": "getBalance",
      "outputs": [
        {
          "name": "",
          "type": "uint256"
        }
      ],
      "payable": false,
      "stateMutability": "view",
      "type": "function"
    },
    {
      "constant": true,
      "inputs": [],
      "name": "getSig",
      "outputs": [
        {
          "name": "",
          "type": "bytes"
        }
      ],
      "payable": false,
      "stateMutability": "view",
      "type": "function"
    },
    {
      "constant": false,
      "inputs": [
        {
          "name": "_number",
          "type": "uint256"
        }
      ],
      "name": "setNumber",
      "outputs": [],
      "payable": false,
      "stateMutability": "nonpayable",
      "type": "function"
    },
    {
      "constant": true,
      "inputs": [],
      "name": "getNumber",
      "outputs": [
        {
          "name": "",
          "type": "uint256"
        }
      ],
      "payable": false,
      "stateMutability": "view",
      "type": "function"
    }
  ],
  "bytecode": "0x608060405234801561001057600080fd5b50336000806101000a81548173ffffffffffffffffffffffffffffffffffffffff021916908373ffffffffffffffffffffffffffffffffffffffff160217905550610655806100606000396000f300608060405260043610610078576000357c0100000000000000000000000000000000000000000000000000000000900463ffffffff16806312065fe01461007d5780633fb5c1cb146100a8578063aaa48425146100d5578063b7b417821461012c578063d12d910214610189578063f2c9ecd814610219575b600080fd5b34801561008957600080fd5b50610092610244565b6040518082815260200191505060405180910390f35b3480156100b457600080fd5b506100d36004803603810190808035906020019092919050505061028e565b005b3480156100e157600080fd5b506100ea610298565b604051808273ffffffffffffffffffffffffffffffffffffffff1673ffffffffffffffffffffffffffffffffffffffff16815260200191505060405180910390f35b34801561013857600080fd5b50610187600480360381019080803590602001908201803590602001919091929391929390803590602001909291908035906020019082018035906020019190919293919293905050506102bd565b005b34801561019557600080fd5b5061019e610418565b6040518080602001828103825283818151815260200191508051906020019080838360005b838110156101de5780820151818401526020810190506101c3565b50505050905090810190601f16801561020b5780820380516001836020036101000a031916815260200191505b509250505060405180910390f35b34801561022557600080fd5b5061022e6104fa565b6040518082815260200191505060405180910390f35b6000600260003373ffffffffffffffffffffffffffffffffffffffff1673ffffffffffffffffffffffffffffffffffffffff16815260200190815260200160002060010154905090565b8060018190555050565b6000809054906101000a900473ffffffffffffffffffffffffffffffffffffffff1681565b60606040519081016040528086868080601f016020809104026020016040519081016040528093929190818152602001838380828437820191505050505050815260200184815260200183838080601f016020809104026020016040519081016040528093929190818152602001838380828437820191505050505050815250600260003373ffffffffffffffffffffffffffffffffffffffff1673ffffffffffffffffffffffffffffffffffffffff1681526020019081526020016000206000820151816000019080519060200190610398929190610504565b506020820151816001015560408201518160020190805190602001906103bf929190610584565b509050503373ffffffffffffffffffffffffffffffffffffffff167fad1dc5d29594e464705d7ac5c35de801606aa3ab8b9ce2bec22abd6a35a6daca846040518082815260200191505060405180910390a25050505050565b6060600260003373ffffffffffffffffffffffffffffffffffffffff1673ffffffffffffffffffffffffffffffffffffffff1681526020019081526020016000206002018054600181600116156101000203166002900480601f0160208091040260200160405190810160405280929190818152602001828054600181600116156101000203166002900480156104f05780601f106104c5576101008083540402835291602001916104f0565b820191906000526020600020905b8154815290600101906020018083116104d357829003601f168201915b5050505050905090565b6000600154905090565b828054600181600116156101000203166002900490600052602060002090601f016020900481019282601f1061054557805160ff1916838001178555610573565b82800160010185558215610573579182015b82811115610572578251825591602001919060010190610557565b5b5090506105809190610604565b5090565b828054600181600116156101000203166002900490600052602060002090601f016020900481019282601f106105c557805160ff19168380011785556105f3565b828001600101855582156105f3579182015b828111156105f25782518255916020019190600101906105d7565b5b5090506106009190610604565b5090565b61062691905b8082111561062257600081600090555060010161060a565b5090565b905600a165627a7a7230582017d106e7484e232909f0b4317313fe16cade142159836378bad1d1b6df01e0ac0029",
  "source": "pragma solidity ^0.4.22;\n/** This Contract will store the data for Balance Proof sig */\ncontract SigData {\n    address public owneraddress;\n    uint number;\n\n    struct SigData {\n        string id;\n        uint balance;\n        bytes balance_proof;\n    }\n\n    mapping (address => SigData) ownerToSigData;\n\n    event ValueSetted(address indexed sender, uint value);\n\n    constructor() public {\n        owneraddress = msg.sender;\n    }\n\n    function setData(string _id, uint _balance, bytes _balance_proof) external {\n        ownerToSigData[msg.sender] = SigData(_id, _balance, _balance_proof);\n\n        emit ValueSetted(msg.sender, _balance);\n    }\n\n    function getBalance() external view returns(uint) {\n        return ownerToSigData[msg.sender].balance;\n    }\n\n    function getSig() external view returns(bytes) {\n        return ownerToSigData[msg.sender].balance_proof;\n    }\n\n    function setNumber(uint _number) external {\n        number = _number;\n    }\n\n    function getNumber() external view returns(uint) {\n        return number;\n    }\n\n\n}\n",
  "sourcePath": "/home/dev-d/Desktop/BlockChain/PrivateBlockChain/contracts/SigData.sol",
  "compiler": {
    "name": "solc",
    "version": "0.4.24+commit.e67f0147.Emscripten.clang"
  },
  "schemaVersion": "2.0.1",
  "updatedAt": "2018-10-18T18:02:38.426Z"
}